{
  "contractName": "Combinatorial_Auction",
  "abi": [
    {
      "constant": true,
      "inputs": [
        {
          "name": "",
          "type": "address"
        }
      ],
      "name": "participantEarning",
      "outputs": [
        {
          "name": "",
          "type": "uint256"
        }
      ],
      "payable": false,
      "stateMutability": "view",
      "type": "function"
    },
    {
      "inputs": [
        {
          "name": "_question1",
          "type": "string"
        },
        {
          "name": "_answer1",
          "type": "string"
        },
        {
          "name": "_question2",
          "type": "string"
        },
        {
          "name": "_answer2",
          "type": "string"
        },
        {
          "name": "_question3",
          "type": "string"
        },
        {
          "name": "_answer3",
          "type": "string"
        },
        {
          "name": "_question4",
          "type": "string"
        },
        {
          "name": "_answer4",
          "type": "string"
        },
        {
          "name": "_participationFee",
          "type": "uint256"
        },
        {
          "name": "_n",
          "type": "uint256"
        }
      ],
      "payable": false,
      "stateMutability": "nonpayable",
      "type": "constructor"
    },
    {
      "constant": true,
      "inputs": [],
      "name": "displayQuestion",
      "outputs": [
        {
          "name": "",
          "type": "string"
        },
        {
          "name": "",
          "type": "string"
        },
        {
          "name": "",
          "type": "string"
        },
        {
          "name": "",
          "type": "string"
        },
        {
          "name": "",
          "type": "uint256"
        }
      ],
      "payable": false,
      "stateMutability": "view",
      "type": "function"
    },
    {
      "constant": false,
      "inputs": [
        {
          "name": "_answer1",
          "type": "string"
        },
        {
          "name": "_answer2",
          "type": "string"
        },
        {
          "name": "_answer3",
          "type": "string"
        },
        {
          "name": "_answer4",
          "type": "string"
        }
      ],
      "name": "registerParticipants",
      "outputs": [],
      "payable": true,
      "stateMutability": "payable",
      "type": "function"
    },
    {
      "constant": true,
      "inputs": [],
      "name": "calculateAmountPad",
      "outputs": [],
      "payable": false,
      "stateMutability": "view",
      "type": "function"
    },
    {
      "constant": false,
      "inputs": [],
      "name": "withdraw",
      "outputs": [],
      "payable": false,
      "stateMutability": "nonpayable",
      "type": "function"
    }
  ],
  "bytecode": "0x60806040523480156200001157600080fd5b50604051620012da380380620012da833981018060405281019080805182019291906020018051820192919060200180518201929190602001805182019291906020018051820192919060200180518201929190602001805182019291906020018051820192919060200180519060200190929190805190602001909291905050508960009080519060200190620000ab929190620001c2565b508860049080519060200190620000c4929190620001c2565b508760019080519060200190620000dd929190620001c2565b508660059080519060200190620000f6929190620001c2565b5085600290805190602001906200010f929190620001c2565b50846006908051906020019062000128929190620001c2565b50836003908051906020019062000141929190620001c2565b5082600790805190602001906200015a929190620001c2565b5081600a819055508060088190555033600c60006101000a81548173ffffffffffffffffffffffffffffffffffffffff021916908373ffffffffffffffffffffffffffffffffffffffff16021790555060006009819055505050505050505050505062000271565b828054600181600116156101000203166002900490600052602060002090601f016020900481019282601f106200020557805160ff191683800117855562000236565b8280016001018555821562000236579182015b828111156200023557825182559160200191906001019062000218565b5b50905062000245919062000249565b5090565b6200026e91905b808211156200026a57600081600090555060010162000250565b5090565b90565b61105980620002816000396000f30060806040526004361061006d576000357c0100000000000000000000000000000000000000000000000000000000900463ffffffff16806323f966b1146100725780632419cbc9146101a05780633ccfd60b146101b7578063835a39b8146101ce578063fdbaba3a14610225575b600080fd5b61019e600480360381019080803590602001908201803590602001908080601f0160208091040260200160405190810160405280939291908181526020018383808284378201915050505050509192919290803590602001908201803590602001908080601f0160208091040260200160405190810160405280939291908181526020018383808284378201915050505050509192919290803590602001908201803590602001908080601f0160208091040260200160405190810160405280939291908181526020018383808284378201915050505050509192919290803590602001908201803590602001908080601f0160208091040260200160405190810160405280939291908181526020018383808284378201915050505050509192919290505050610400565b005b3480156101ac57600080fd5b506101b5610658565b005b3480156101c357600080fd5b506101cc6107a3565b005b3480156101da57600080fd5b5061020f600480360381019080803573ffffffffffffffffffffffffffffffffffffffff16906020019092919050505061091d565b6040518082815260200191505060405180910390f35b34801561023157600080fd5b5061023a610935565b604051808060200180602001806020018060200186815260200185810385528a818151815260200191508051906020019080838360005b8381101561028c578082015181840152602081019050610271565b50505050905090810190601f1680156102b95780820380516001836020036101000a031916815260200191505b50858103845289818151815260200191508051906020019080838360005b838110156102f25780820151818401526020810190506102d7565b50505050905090810190601f16801561031f5780820380516001836020036101000a031916815260200191505b50858103835288818151815260200191508051906020019080838360005b8381101561035857808201518184015260208101905061033d565b50505050905090810190601f1680156103855780820380516001836020036101000a031916815260200191505b50858103825287818151815260200191508051906020019080838360005b838110156103be5780820151818401526020810190506103a3565b50505050905090810190601f1680156103eb5780820380516001836020036101000a031916815260200191505b50995050505050505050505060405180910390f35b600c60009054906101000a900473ffffffffffffffffffffffffffffffffffffffff1673ffffffffffffffffffffffffffffffffffffffff163373ffffffffffffffffffffffffffffffffffffffff16141515156104ec576040517f08c379a00000000000000000000000000000000000000000000000000000000081526004018080602001828103825260258152602001807f5175697a4d61737465722063616e6e6f74206265636f6d65206120706172746981526020017f6369616e7400000000000000000000000000000000000000000000000000000081525060400191505060405180910390fd5b34600a548114151561058c576040517f08c379a00000000000000000000000000000000000000000000000000000000081526004018080602001828103825260358152602001807f416e7920466565206f74686572207468616e2070617274696369706174696f6e81526020017f466565206973206e6f742061636365707461626c65000000000000000000000081525060400191505060405180910390fd5b600060085411151561062c576040517f08c379a00000000000000000000000000000000000000000000000000000000081526004018080602001828103825260248152602001807f4e6f206d6f7265207061727469636970616e74732063616e207061727469636981526020017f706174650000000000000000000000000000000000000000000000000000000081525060400191505060405180910390fd5b600a546009540160098190555061064585858585610bc8565b6001600854036008819055505050505050565b60008060008060006008541415156106d8576040517f08c379a000000000000000000000000000000000000000000000000000000000815260040180806020018281038252601e8152602001807f4d6f7265205061727469636970616e747320617265207265717569726564000081525060200191505060405180910390fd5b6009549250600090505b600d805490508110156107965760009350600e6000600d8381548110151561070657fe5b9060005260206000200160009054906101000a900473ffffffffffffffffffffffffffffffffffffffff1673ffffffffffffffffffffffffffffffffffffffff1673ffffffffffffffffffffffffffffffffffffffff1681526020019081526020016000205491506010600954836003020281151561078157fe5b049350838303925080806001019150506106e2565b8260098190555050505050565b600c60009054906101000a900473ffffffffffffffffffffffffffffffffffffffff1673ffffffffffffffffffffffffffffffffffffffff163373ffffffffffffffffffffffffffffffffffffffff16141561084f573373ffffffffffffffffffffffffffffffffffffffff166108fc600b549081150290604051600060405180830381858888f19350505050158015610841573d6000803e3d6000fd5b506000600b8190555061091b565b3373ffffffffffffffffffffffffffffffffffffffff166108fc600f60003373ffffffffffffffffffffffffffffffffffffffff1673ffffffffffffffffffffffffffffffffffffffff168152602001908152602001600020549081150290604051600060405180830381858888f193505050501580156108d4573d6000803e3d6000fd5b506000600f60003373ffffffffffffffffffffffffffffffffffffffff1673ffffffffffffffffffffffffffffffffffffffff168152602001908152602001600020819055505b565b600f6020528060005260406000206000915090505481565b606080606080600080600160026003600a54848054600181600116156101000203166002900480601f0160208091040260200160405190810160405280929190818152602001828054600181600116156101000203166002900480156109dc5780601f106109b1576101008083540402835291602001916109dc565b820191906000526020600020905b8154815290600101906020018083116109bf57829003601f168201915b50505050509450838054600181600116156101000203166002900480601f016020809104026020016040519081016040528092919081815260200182805460018160011615610100020316600290048015610a785780601f10610a4d57610100808354040283529160200191610a78565b820191906000526020600020905b815481529060010190602001808311610a5b57829003601f168201915b50505050509350828054600181600116156101000203166002900480601f016020809104026020016040519081016040528092919081815260200182805460018160011615610100020316600290048015610b145780601f10610ae957610100808354040283529160200191610b14565b820191906000526020600020905b815481529060010190602001808311610af757829003601f168201915b50505050509250818054600181600116156101000203166002900480601f016020809104026020016040519081016040528092919081815260200182805460018160011615610100020316600290048015610bb05780601f10610b8557610100808354040283529160200191610bb0565b820191906000526020600020905b815481529060010190602001808311610b9357829003601f168201915b50505050509150945094509450945094509091929394565b6000809050610c718560048054600181600116156101000203166002900480601f016020809104026020016040519081016040528092919081815260200182805460018160011615610100020316600290048015610c675780601f10610c3c57610100808354040283529160200191610c67565b820191906000526020600020905b815481529060010190602001808311610c4a57829003601f168201915b5050505050610f49565b15610c7f5780806001019150505b610d238460058054600181600116156101000203166002900480601f016020809104026020016040519081016040528092919081815260200182805460018160011615610100020316600290048015610d195780601f10610cee57610100808354040283529160200191610d19565b820191906000526020600020905b815481529060010190602001808311610cfc57829003601f168201915b5050505050610f49565b15610d315780806001019150505b610dd58360068054600181600116156101000203166002900480601f016020809104026020016040519081016040528092919081815260200182805460018160011615610100020316600290048015610dcb5780601f10610da057610100808354040283529160200191610dcb565b820191906000526020600020905b815481529060010190602001808311610dae57829003601f168201915b5050505050610f49565b15610de35780806001019150505b610e878260078054600181600116156101000203166002900480601f016020809104026020016040519081016040528092919081815260200182805460018160011615610100020316600290048015610e7d5780601f10610e5257610100808354040283529160200191610e7d565b820191906000526020600020905b815481529060010190602001808311610e6057829003601f168201915b5050505050610f49565b15610e955780806001019150505b80600e60003373ffffffffffffffffffffffffffffffffffffffff1673ffffffffffffffffffffffffffffffffffffffff168152602001908152602001600020819055506001600d3390806001815401808255809150509060018203906000526020600020016000909192909190916101000a81548173ffffffffffffffffffffffffffffffffffffffff021916908373ffffffffffffffffffffffffffffffffffffffff16021790555050505050505050565b6000606080849150839050806040518082805190602001908083835b602083101515610f8a5780518252602082019150602081019050602083039250610f65565b6001836020036101000a038019825116818451168082178552505050505050905001915050604051809103902060001916826040518082805190602001908083835b602083101515610ff15780518252602082019150602081019050602083039250610fcc565b6001836020036101000a0380198251168184511680821785525050505050509050019150506040518091039020600019161492505050929150505600a165627a7a723058209a0906852c851d034a9c5c2a2d720562f64512d2ac7644263bbc37a6e4d770040029",
  "source": "pragma solidity ^0.4.24;\n    \n    contract Combinatorial_Auction {\n        \n        string question1;   //Storing the questions 1 to 4\n        string question2;\n        string question3;\n        string question4;\n        \n        string answer1;     //Storing the answers 1 to 4\n        string answer2;\n        string answer3;\n        string answer4;\n        \n        uint n;             //max number of participants allowed in the quiz\n        uint totalFee;\n        uint participationFee;\n        uint quizMasterFee;\n        \n        address private quizMaster;\n        \n        address[] private participants;\n        \n         mapping(address => uint) correctAnswerCountMapping;\n         mapping(address => uint) public participantEarning;\n        \n        //This makes sure that quizMaster cannot become a particiant\n        modifier notQuizMaster(){\n            require(msg.sender!=quizMaster,\"QuizMaster cannot become a particiant\");\n        _;}\n        \n        //Everyone inputs the same participationFee\n        modifier feeEqualToPFee(uint _participationFee){\n            require(_participationFee==participationFee,\"Any Fee other than participationFee is not acceptable\");\n        _;}\n        \n        //Checks the number of participants in the game == n\n        modifier numberOfParticipants(){\n            require(n>0,\"No more participants can participate\");\n        _;}\n        \n        //Checks if the numberOfParticipants == n or we have reached revealDeadline\n        modifier verifyRevealDeadline(){\n            require(n==0,\"More Participants are required\");\n        _;}\n        \n        constructor(string _question1,string _answer1,string _question2,string _answer2,string _question3,string _answer3,string _question4,string _answer4,uint _participationFee, uint _n) \n        public\n        {\n            question1 = _question1;\n            answer1 = _answer1;\n            \n            question2 = _question2;\n            answer2 = _answer2;\n            \n            question3 = _question3;\n            answer3 = _answer3;\n            \n            question4 = _question4;\n            answer4 = _answer4;\n            \n            participationFee = _participationFee;\n            \n            n = _n;\n            \n            quizMaster = msg.sender;\n            \n            totalFee = 0;\n        }\n        \n        function displayQuestion()\n        public\n        view                                //https://ethereum.stackexchange.com/questions/27181/remix-warnings-state-mutability-and-public-visibility\n        returns(string,string,string,string,uint)\n        {\n            return(question1,question2,question3,question4,participationFee);\n        }\n        \n        \n        function registerParticipants(string _answer1,string _answer2,string _answer3,string _answer4)\n        public\n        payable\n        notQuizMaster()\n        feeEqualToPFee(msg.value)\n        numberOfParticipants()\n        {\n            totalFee = totalFee + participationFee;\n            calculateCorrectAnswer(_answer1,_answer2,_answer3,_answer4);\n            n=n-1;\n        }\n        \n        \n        function calculateCorrectAnswer(string _answer1,string _answer2,string _answer3,string _answer4)\n        private\n        {\n            uint count=0;\n            if(compareStrings(_answer1,answer1))\n                count++;\n            if(compareStrings(_answer2,answer2))\n                count++;\n            if(compareStrings(_answer3,answer3))\n                count++;\n            if(compareStrings(_answer4,answer4))\n                count++;\n            \n            correctAnswerCountMapping[msg.sender]=count;  \n            participants.push(msg.sender) -1;\n        }\n        \n        function compareStrings (string _a, string _b)\n        private\n        pure \n        returns (bool)\n        {\n            bytes memory a = bytes(_a);\n            bytes memory b = bytes(_b);\n            return keccak256(a) == keccak256(b);\n        }\n        \n        function calculateAmountPad()\n        public\n        view\n        verifyRevealDeadline()\n        {\n            uint payableValue;\n            uint remainingFee=totalFee;\n            uint count;\n            for(uint i=0;i<participants.length;i++){\n                payableValue=0;\n                count = correctAnswerCountMapping[participants[i]];\n                payableValue = (3*count*totalFee)/16;    \n                \n                remainingFee -= payableValue;\n            }\n            totalFee = remainingFee;\n        }\n\t\tfunction withdraw()\n    public\n    {\n        if(msg.sender == quizMaster){\n            msg.sender.transfer(quizMasterFee);\n            quizMasterFee = 0;\n        }\n        else\n        {\n            msg.sender.transfer(participantEarning[msg.sender]);\n            participantEarning[msg.sender] = 0;\n        }\n    }\n    }",
  "sourcePath": "/home/shipta/OnlineQuiz/contracts/OnlineQuiz.sol",
  "compiler": {
    "name": "solc",
    "version": "0.4.24+commit.e67f0147.Emscripten.clang"
  },
  "schemaVersion": "2.0.1",
  "updatedAt": "2018-10-29T20:17:46.483Z"
}